:1000000000800020BD010000D9160000D9160000B4
:10001000D9160000D9160000D9160000A516000058
:10002000A5160000A5160000A5160000D9160000B0
:10003000D9160000A5160000D9160000951600007C
:10004000D9160000D9160000D9160000D9160000F4
:10005000D9160000D9160000D9160000D9160000E4
:10006000D9160000D9160000D9160000D9160000D4
:10007000D9160000D9160000D9160000D9160000C4
:10008000D9160000D9160000D9160000D9160000B4
:10009000D9160000D9160000D9160000D9160000A4
:1000A0002112000015120000D9160000D916000018
:1000B000D9160000D9160000D9160000D916000084
:1000C000D9160000D9160000D9160000D916000074
:1000D000D9160000D9160000D9160000D916000064
:1000E000D9160000D9160000D9160000D916000054
:1000F000D916000005220000D9160000892500004D
:10010000D9160000C1280000D9160000D916000039
:10011000D9160000D9160000D9160000D916000023
:10012000D9160000D9160000D9160000D916000013
:10013000D9160000D9160000D9160000D916000003
:10014000D9160000D9160000D9160000D9160000F3
:10015000253800003D380000553800006D3800009B
:10016000D91600007D2B0000D9160000D91600001A
:10017000D9160000D9160000D9160000D9160000C3
:10018000D9160000D9160000D9160000D9160000B3
:10019000D9160000D9160000D91600003518000045
:1001A000851800000D190000C91900004D1A000043
:1001B000D9160000D9160000253500004F4B4CF22F
:1001C000205210B51A804DF628121A8000BF00BFC9
:1001D00001F086FA4A4B4FF010621A60494A9A6061
:1001E000494ADA60494B1A6812F4807204D14849CE
:1001F0000A604FF4A8521A60464B1A7802F00802BF
:10020000D2B21AB11A7842F008021A70424B43482F
:10021000434C2A221A700023424A02E0195999508D
:10022000043399188142F9D33F4B404A002101E041
:1002300043F8041B9342FBD33D4B00221A603D4B15
:100240003D4A802103F8011B9342FBD13B4B0A221C
:100250001A703B4B24221A70A02203F8012C394A51
:10026000137803F00203DBB2002BF9D0354A137880
:1002700003F01003DBB2002BF9D1324A137803F0FC
:100280000C03082BFAD1304B03221A7040225A700B
:100290002C4A137803F02003DBB2002BF9D0294A53
:1002A000137803F04003DBB2002BF9D0274B284A28
:1002B0001A6002225A60274B20221A70214A1378B2
:1002C00003F00C030C2BFAD1234A244B1A60244B65
:1002D000244A1A60072243F8042C62B601F07AFD22
:1002E0000B4B1B68DC0702D51F4801F0C7FB04F06D
:1002F00087F901F0FBF903F09BFBFEE70E200540B8
:1003000030800440823F04000100002B10D00340E5
:1003100014D0034002D0074000E007400C8FFF1FBD
:10032000D45700004084FF1F108FFF1F543000205F
:1003300008ED00E000E400E05FE400E0005006406B
:100340000140064006400640044006404480044008
:100350000000030100400640C01005000480044076
:1003600014E000E0FF76010000DD6850FFFFFFFFB2
:10037000FFFFFFFFFFFFFFFFFFFFFFFFFFFFFFFF8D
:10038000FFFFFFFFFFFFFFFFFFFFFFFFFFFFFFFF7D
:10039000FFFFFFFFFFFFFFFFFFFFFFFFFFFFFFFF6D
:1003A000FFFFFFFFFFFFFFFFFFFFFFFFFFFFFFFF5D
:1003B000FFFFFFFFFFFFFFFFFFFFFFFFFFFFFFFF4D
:1003C000FFFFFFFFFFFFFFFFFFFFFFFFFFFFFFFF3D
:1003D000FFFFFFFFFFFFFFFFFFFFFFFFFFFFFFFF2D
:1003E000FFFFFFFFFFFFFFFFFFFFFFFFFFFFFFFF1D
:1003F000FFFFFFFFFFFFFFFFFFFFFFFFFFFFFFFF0D
:10040000FFFFFFFFFFFFFFFFFFFFFFFFFEFFFFFFFD
:1004100008B548F60C70074BC1F6FF701B1A062B87
:1004200000D808BD40F20003C0F20003002BF8D052
:100430009847F6E70F8FFF1F08B548F60C7048F68F
:100440000C73C1F6FF70C1F6FF731B1A9B1003EB10
:10045000D373591000D108BD40F20002C0F200026F
:10046000002AF8D09047F6E710B548F61074C1F6A8
:10047000FF74237873B9FFF7CBFF40F20003C0F29B
:1004800000032BB145F2D470C0F20000AFF300803E
:100490000123237010BD00BF08B540F20003C0F275
:1004A00000034BB145F2D47048F61471C0F200005D
:1004B000C1F6FF71AFF3008048F60C70C1F6FF7013
:1004C00003682BB140F20003C0F2000303B1984768
:1004D000BDE80840FFF7B0BF034B1A78D2F1010224
:1004E00038BF00221A707047588FFF1F10B504469E
:1004F00003F050FA204610BD38B5044608460D46B4
:1005000001F01CF9236802465B682046294698479B
:1005100038BD08B50368C9B21B68984708BDFFFF1E
:10052000044B82B01B680193019B591A016002B011
:10053000704700BF142D00202DE9FF47624E35782B
:10054000002D40F07181614B1A78614B1B789A4203
:1005500000F05B815F4B604C1878604E012101F028
:10056000EFFA2046682100F0C9FB23681F211B68B1
:10057000204698472A460121204600F08CFC009531
:10058000012320696821022200F075FC544B1D8074
:100590001D4607E0B5F9007000F08CFC2B88F05583
:1005A00001332B802069D0F83821D0F834319A42B9
:1005B000F0D14C4B1B6803934B4B039A1B68D21A28
:1005C00040F6C3139A42454B30D8484A18785B78B6
:1005D0001788474E43EA0020464B013718801780A2
:1005E00000B203F0ADFCD6E9002303F05DFB044646
:1005F0000D46C6E9004538B203F0A2FC02460B46A0
:100600002046294603F02CFE3B4BC3E900013B4941
:1006100000220023C1E900233949C1E900233949F7
:10062000C1E900233849C1E90023A8E018785B78C4
:10063000334C364D43EA00202E4B188000B203F0B5
:100640007FFC2D4BD3E9002303F02CFB2B4BC3E99C
:10065000000117A3D3E9002303F0D8FC16A3D3E9C4
:10066000002303F0FDFD02460B46D4E9000103F030
:100670001BFB274BC4E900012C68185D1B195B7834
:1006800043EA002003F04CFC0DA3D3E9002303F060
:10069000BDFC00221F4B03F0E3FD1F4BC3E900012B
:1006A0001E4B1B68043BA3423ADC00232B6039E05D
:1006B000182D4454FB21094000000000F0953F41F3
:1006C000CDCCCCCCCCCCF43FD22B0020588FFF1F0C
:1006D000E02B0020348FFF1F702C0020502C0020B6
:1006E000D42B0020142D0020582C0020D02B0020CB
:1006F000608FFF1FD62B0020708FFF1FE82B00207C
:10070000D82B0020C82B0020508FFF1FF42B002077
:10071000808FFF1F00005940F82B00207C8FFF1FA7
:1007200004342C60DFF87C814D4BDFF854A1D8E90C
:100730000045C3E90045DAE9002303F0B3FA0646B1
:100740000F46C8E900670022464B03F05FFC2246D3
:10075000804689462B463046394603F0A3FA0246C6
:100760000B464046494603F09FFA3F4BC3E9000160
:10077000092000F0F7FE03F0E3FBCAE900013A4D5F
:100780003A4BD5E900011C7803F0DAFE0146204619
:1007900001F012FA0724364B0094D3E900233548C0
:1007A00003F096F934493348FFF7A6FE334B009423
:1007B000D3E900232F4803F08BF92F492D48FFF789
:1007C0009BFE0094D5E900232A4803F081F92A49C9
:1007D0002848FFF791FE01230093294B2548D3E9D0
:1007E000002303F075F927492248FFF785FE2148C9
:1007F00003F026F902F052FE234B0021187801F095
:100800009FF9224B1A78224B1A7002F0A3FD0028A0
:1008100023DD02F057FD1F4BC0B2532818701CD1C6
:100820001D4B01221A7018E002F094FD00280FDD24
:1008300002F048FD174BC0B2472818700DD10024B4
:10084000164834702146FFF76BFE154B1C7004E010
:10085000064B0021187801F0AFF9BDE8FF8700BF13
:10086000082C002000001C40C82B0020308FFF1FE8
:10087000D82B00200030002034530000F82B00203B
:10088000508FFF1F36530000348FFF1F588FFF1FFC
:10089000E02B00204C8FFF1FD22B0020582C002073
:1008A000002C0020C02B002070B50B4C0D46C1B2AF
:1008B0002046164600F022FA2946204600F01CF990
:1008C0003146204600F018F9002120460A46BDE8CE
:1008D000704000F0E0BA00BF702C0020F0B55A4E16
:1008E0005A4C5B4D0D2387B00A2033600121082349
:1008F0002B70206001F044F93078012101F040F9BB
:100900002878012101F03CF9C8212078514C01F0F0
:10091000D1F80C2001F0C2F80C2000F0CFFD20200F
:1009200000F0F6FD4C4B4D494D4840F2E2421A6052
:100930004EF65F2203F037F8012001F035FA00236C
:100940002370254602E002F0BDFC28702378472B77
:10095000F9D14448444C454E3E4F0021FFF7E0FD9D
:10096000002323602AE002F0F5FC0028FBD00A23D4
:1009700079213E4A3E483B4D03F042F93B4803F0A3
:100980002DFE23683B4A3870D054013323603A4B24
:100990001B680593059A2B68D31A282B0ED9374B61
:1009A0001978D1F1010138BF00211970264B187850
:1009B00001F0C6F828460021FFF7B2FD3578542D26
:1009C000D1D1214B234C1878002101F0B9F8264BE6
:1009D0002B491A682648013A0A60002229461A6003
:1009E000FFF797FD22487921FFF793FD02E002F01F
:1009F00069FC20702378472BF9D1224B0024032275
:100A0000597B03920094019402941869224623466C
:100A100000F0C6F8012001F0C7F96820152109226D
:100A2000FFF742FF682016211822FFF73DFF6820DC
:100A30003E210122FFF738FF13482146FFF770FDE2
:100A4000124B1C7007B0F0BD688FFF1F308FFF1F67
:100A5000348FFF1F4C8FFF1F5C8FFF1FD9040000D6
:100A6000388FFF1FF02B0020F42B0020102C0020CB
:100A700000300020808FFF1F142D00202C8FFF1FBF
:100A80007C8FFF1F702C0020582C0020002C002091
:100A900007B50B480B490C4A0023037003F098FD7F
:100AA00001F064F9094B1860094B1A68009200992B
:100AB0001B68084A01931160074B019A1A600EBD2A
:100AC000388FFF1FED0400004084FF1F788FFF1F49
:100AD000142D0020582C0020F02B00200369D3F89F
:100AE0003801D3F83431C01A70477047014B0360A6
:100AF000704700BF405300000369D3F84422B2F5A9
:100B0000817F09D8D3F844229818013280F83C112B
:100B1000C3F844220120704701230371002070476D
:100B2000036930B5D3F84442B4F5817F1CD8D3F8BB
:100B30004442D3F84452C4F5817401345B19A24293
:100B400003F59E7502D9012303712246002302E0BA
:100B5000CC5CEC5401339342FAD10369D3F84412CC
:100B60005118C3F8441202E0012303710022104619
:100B700030BDFFFF002202710273074A417310B5B6
:100B800002604FF47A74054A84604FF4187404FBD1
:100B90000121016110BD00BF405300004484FF1FCC
:100BA000F0B59DF814409DF818509DF8206029B9C3
:100BB0004C4FD7F800C04CF0400C06E0012906D19C
:100BC000484FD7F800C04CF0800CC7F800C0002791
:100BD00080F84B7280F84822476932B920233B7075
:100BE00003681A70C3691A7014E0002C0CBF20222D
:100BF00028223A70076801D0A34201D25A0000E0CF
:100C000062003A70C26924B1A34201D2640000E0DC
:100C10005C0014709DF81C3040F20362002B40F21F
:100C2000646440F2032308BF4FF4197308BF2246DF
:100C300071B9012D05D12C4A80F8495213605360D7
:100C400018E02A4A80F84912136042F8043C11E087
:100C500001290FD1032D06D1254B80F849521A6086
:100C600043F8042C06E0022280F84922214A13604E
:100C70000432136043680A2E1BD8DFE806F01A0618
:100C8000080A0C0E1012141618001F2212E01D2262
:100C900010E085220EE014220CE045220AE00D222D
:100CA00008E00B2206E0092204E0022202E0002212
:100CB00000E027221A70836904221A7090F84822F3
:100CC00083680AB9802200E0C0221A7011B94FF07F
:100CD000807203E0012903D14FF00072064B1A60C5
:100CE000F0BD00BF3480044000A004400CA00440CC
:100CF00004D0044028B0044000E100E0036949004A
:100D000083F83C1103690122C3F8442200220271D6
:100D100083F84B227047D0F8443210B53BB3C36818
:100D200012221A7083681A7802F02002D2B20AB135
:100D3000B42209E0C468227802F02002D2B2002A6C
:100D4000F9D180F84822B0221A70012380F84B3282
:100D50000023C0F84032836880F84A12F0221A70EB
:100D6000D0F840220369801890F83C211A7010BD19
:100D700030B54AB3C0F850220022C0F83421C0F880
:100D80003821C268122414708268147804F0200498
:100D9000E4B20CB1B42409E0C5682C7804F0200456
:100DA000E4B2002CF9D180F84842B024147080F8E5
:100DB0004A320222836880F84B22F0221A704900DE
:100DC000036941F00101197030BD036993F84B329A
:100DD000043B032B07D8DFE803F004020B040220D6
:100DE0007047042070470079003018BF0120704719
:100DF0000320704790F84B326BB190F84B32052BC3
:100E000009D090F84B32062B05D090F84B02C31F47
:100E10005842584170470120704770B504460D464E
:100E200000F0A4FF06462046FFF7E4FFD8B9002DE6
:100E3000F9D000F09BFF801BA842F4D313E094F894
:100E40004B32022B13D094F84B32032B0FD04FF4BC
:100E5000A073013B7FF4FDAF94F84B02D0F1010089
:100E600038BF002070BD94F84B32012BE7D104232A
:100E700084F84B32EBE710B504460AB9002010BDE8
:100E8000FFF776FF20460299FFF7C7FF0028F5D04D
:100E9000D4F8380110BD38B5044615460069FFF78F
:100EA0003AFF20692946FFF7B8FF2046BDE83840E1
:100EB000FFF78BBFD0F83411D0F8382191420346A8
:100EC00008D2D0F834218118013291F83000C3F8EB
:100ED000342170474FF0FF3070470069FFF7EABFD9
:100EE000D0F83421D0F838319A4205D2D0F83431D4
:100EF000C01890F8300070474FF0FF30704700691D
:100F0000FFF7EEBF38B5C16883680D781A780446DC
:100F100002F02000C0B2002800F0AC8002F0100205
:100F2000D2B2002A4DD094F84B22012A1CD115F0E0
:100F30000105D4F8402206D002B927E0062284F841
:100F40004B2280220DE10132C4F84022D4F8441231
:100F50008A4202D384F84B522CE0D4F84022236911
:100F6000A21892F83C21FCE094F84B22022A1DD1F1
:100F700005F01002D2B23AB1072284F84B22802247
:100F80001A70E36812221FE1EA0701D50522D6E7AD
:100F9000032284F84B22D4F85022012A01D1E822FE
:100FA00000E0E0221A7023691B780BE194F84B22D1
:100FB000042AC6D194F84A22012A00D1C1E7B022FE
:100FC000CFE0D4F83811D4F850220231914200F029
:100FD000FD8094F84B22042A04D194F85522002A6B
:100FE00000F0F480D4F83821D4F8503201329A421B
:100FF00080F0EF8094F84B32042B40F0F38094F8AB
:101000005532002B40F0E580ECE084F84B32A368C9
:10101000B0221A7023691978D4F83831B3F5817F7A
:1010200007D8D4F83831E218013382F83010C4F808
:10103000383194F84A32012B06D12023013B7FF44A
:10104000FDAFA36880221A7094F84B3207E0D4F801
:101050003831E118013381F83020C4F8383194F880
:101060004B32042B40F0AE8094F85532002B00F048
:10107000C280A7E005F01003DBB233B110230B7080
:1010800005F04003DBB203B99CE015F0400150D0FD
:1010900094F84B32092B04D1D4F85832002B40F08D
:1010A000AE8015F004051DD0082384F84B320023D0
:1010B000C4F84432D4F85C3203B19847D4F84432CF
:1010C0000BB984F83C31A368D0221A7023691A78CE
:1010D000520884F84C2294F83C211A700123C4F879
:1010E00040326FE094F8492284F854520AB9122031
:1010F00002E0012A02D11120444903E0022A03D16F
:1011000043491E20032203E0032A03D140491F2044
:1011100000F04EFB092384F84B320023C4F8383129
:10112000A368C0221A7023691B785B0884F84C32CC
:1011300048E012F010021ED015F0010513D1D4F8CA
:101140004022D4F844329A4207D2D4F84032E2180E
:10115000013392F83C51C4F8403223691D70A368F2
:10116000D0221A702EE0A368C0221A7023691B785F
:1011700084F84B1226E084F8542294F849220AB9E4
:10118000122002E0012A02D11120204903E0022AA4
:1011900003D11F491E20032203E0032A03D11C4967
:1011A0001F2000F005FB23691978D4F83831B3F516
:1011B000817F07D8D4F83831E218013382F8301033
:1011C000C4F83831E36802221A7038BDE8221A7078
:1011D00008E794F84B220023042A84F855327FF460
:1011E00014AF14E723691A78D4F83831B3F5817F46
:1011F0007FF62DAF33E7012384F85532E2E7002272
:10120000C4F83421D4F8380198474AE7C9120000DD
:10121000BD12000001480121FFF774BEA486FF1F24
:1012200001480021FFF76EBE4484FF1F10B5C3685C
:101230001B7813F0200304461ED180F84B3290F83F
:1012400049320BB912200AE0012B01D1112006E02E
:10125000022B01D11E2002E0032B02D11F2000F03F
:10126000D1FAD4F85832002B27D00022C4F8342108
:10127000D4F83801984710BD90F854320133DBB2EE
:10128000012B80F8543213D890F84832012B0FD13B
:1012900010BD122008E01120012B05D01E20022BCA
:1012A00002D0032B09D11F20BDE8104000F0AABADC
:1012B00094F84932002BEED1EBE710BD0148012133
:1012C000FFF7B4BFA486FF1F01480021FFF7AEBFA0
:1012D0004484FF1F70B50C4E0C4D0D4C0021304660
:1012E000FFF748FC30460B4E2246294603F070F9C2
:1012F00001213046FFF73EFC304629462246BDE834
:10130000704003F065B900BF702C0020ED0A0000AA
:101310004084FF1F5C2C0020F0B530483049036842
:101320001B06FCD40B6813F08002F8D172B62D4B6B
:101330001978002950D02C4908684F688E68CD680C
:101340000C693818143180190968401900194018BF
:10135000C0F34E00254940F400400860C86A0F6B96
:101360004E6B8D6BCC6B3818403180190968401971
:1013700000194018C0F34E001D4940F400400860B9
:1013800001F10811143151F8140C51F8107C51F886
:101390000C6C51F8085C51F8044C09683818801935
:1013A000401900194018C0F34E00124940F40040A3
:1013B0000860C86A0F6B4E6B8D6BCC6B3818403170
:1013C00080190968401900194018C0F34E000A49F5
:1013D00040F4004008601A7062B6F0BD24B00340CB
:1013E00024B00B40852C002038B003402CB00340C3
:1013F00030B003402CB00B4030B00B40224B602289
:101400001A70E1225A70214B214A1978214B082980
:1014100001D1012102E00A2907D1392111601322EB
:101420001A601D4B19605A600BE00C291A4901D152
:10143000352000E03D20106012221A60174B086032
:101440001A60174B17491B78174A03B101230B6029
:101450001360164B164A1978164B012901D88021C2
:101460000CE0042901D8842108E0082901D885214D
:1014700004E0102901D8862100E08721116019605D
:101480000D4B01221A707047004007400489FF1F6E
:1014900008B003400CB0034008B00B400CB00B4048
:1014A000882C002020B0034020B00B400589FF1F8E
:1014B00024B0034024B00B40852C00200C2803D915
:1014C0001023102807D809E00A2806D8082894BF56
:1014D00008230A2302E0184600E00C23084AD9B288
:1014E000081A1070074A1078834208D0064B117012
:1014F0001B7813B1054B00221A60FFF77FBF7047BE
:10150000842C00200489FF1F852C002024B0034078
:1015100010B5114B1B7804460BB1FFF7FDFE012CF3
:101520000E4A01D8002302E0042C02D804231360E1
:101530000EE0082C03D805231360082308E0102CC4
:1015400003D806231360102302E00723136020232F
:10155000034A137010BD00BF852C002024B0034047
:101560000589FF1F0D282DE9F0410FD9172801D853
:101570000E380AE0A0F11A03052B01D8093804E05F
:10158000A0F12203062B4DD81838C0B2274B1C5CA3
:10159000274B1B780BB1FFF7BFFE72B6200614D4A1
:1015A000244D254E01272C60377062B672B62B6829
:1015B000190603D5214B18681F4B23E03378002B05
:1015C000F1D062B601F0ACFFF0E704F040071C4D2B
:1015D0001C4EFFB204F03F044FF001081A4B1A688A
:1015E00017B122F0100201E042F010021A602C60E4
:1015F00086F8008062B672B62B681A060BD5134BBC
:101600001868104B00221A7062B6114B1B7840FA12
:1016100003F0BDE8F0813378002BDFD062B601F033
:101620007FFFE8E70020BDE8F08100BF58530000CD
:10163000852C002000B00340872C002010B0034010
:1016400000B00B40862C00200CB00B4010B00B40BB
:10165000842C00200B4B1A6842F480521A600A4B0B
:101660001A780A4B0AB1802200E0C0221A7040F6B4
:10167000FF739842A8BF1846054B20EAE070188017
:10168000704700BF2C800440882C002021C00C40F3
:1016900000C00C40024B1A6801321A60704700BF4C
:1016A000142D002038B50B4C25462368580301D56E
:1016B00001F064FA2B68590501D500F0A3FD2B68F1
:1016C0001A0501D500F060FF2368DB04EDD501F0B9
:1016D000F7F8EAE73480044008B5FFF7E3FFFFFFBF
:1016E000014B10221A807047002005407047FFFF11
:1016F000024A136818181060184670470889FF1FBF
:10170000EFF313839BB9EFF3108098B9EFF30583E0
:1017100023B10F2B04D9084A985C01E04FF4807084
:10172000EFF311833BB1984228BF184670474FF042
:10173000FF30704718467047F0E300E0002300E0F8
:101740000133C25C002AFBD11846704710B5002354
:10175000B0FBF2F402FB1400092801D8303000E09D
:101760003730C85420460CB10133F1E7CA18547021
:10177000224605E0885CCC5C8C54C8540132013BA5
:101780009A42F7DB084610BD084B4FF400021A607E
:101790004FF080721A604FF000721A604FF0806252
:1017A0001A604FF000621A60704700BF08E100E065
:1017B000212830B521D8042A1FD8DFE802F0070914
:1017C000050B03000B2306E00A2304E0082302E0D4
:1017D0000C2300E00923094A02EBC002526872B6EA
:1017E0001468074D24F47024146044F0807444EAB3
:1017F000034345F82010136062B630BD70530000FB
:101800008C2C0020094B03EBC0035B6872B61A688E
:1018100022F0877222F4803242F080721A60044B08
:10182000002243F8202062B6704700BF70530000CA
:101830008C2C0020114B10B51C68E0041C6004D5F2
:101840000F4BDA680AB1DB689847A10404D50C4B4A
:101850001A690AB11B699847A20604D5084B1A6E8B
:101860000AB11B6E9847E30606D5054BD3F88420D2
:1018700012B1D3F88430984710BD00BFA090044047
:101880008C2C00201F4B10B51C68E0031C6004D595
:101890001D4B1A680AB11B689847A10304D51A4B5F
:1018A0005A680AB15B689847E20704D5164B1A6C70
:1018B0000AB11B6C9847A30704D5134B5A6C0AB1A5
:1018C0005B6C9847200704D50F4B9A6C0AB19B6C50
:1018D0009847610704D50C4BDA6C0AB1DB6C98476A
:1018E000220304D5084B5A6E0AB15B6E9847630316
:1018F00006D5054BD3F8802012B1D3F88030984735
:1019000010BD00BFA0A004408C2C00202C4B10B5B3
:101910001C6820071C6004D52A4B5A6A0AB15B6A0E
:101920009847E10604D5274B9A6A0AB19B6A984703
:10193000620604D5234BDA6A0AB1DB6A98472306AC
:1019400004D5204B1A6B0AB11B6B9847A00604D52F
:101950001C4B5A6B0AB15B6B9847E10704D5194BD6
:10196000DA6B0AB1DB6B9847A20704D5154B9A6D69
:101970000AB19B6D9847630704D5124BDA6D0AB123
:10198000DB6D9847A00504D50E4BDA6E0AB1DB6E0D
:101990009847E10504D50B4B1A6F0AB11B6F9847A6
:1019A000620504D5074B5A6F0AB15B6F9847230550
:1019B00004D5044B9A6F0AB19B6F984710BD00BFC6
:1019C000A0B004408C2C00201E4B10B51C68E00712
:1019D0001C6004D51C4B9A680AB19B689847210685
:1019E00004D5194B5A690AB15B699847E20604D5D8
:1019F000154B9A690AB19B699847630704D5124B46
:101A0000DA690AB1DB699847200704D50E4B1A6AD8
:101A10000AB11B6A9847A10704D50B4B9A6B0AB110
:101A20009B6B9847A20604D5074B1A6D0AB11B6D34
:101A30009847630604D5044B5A6D0AB15B6D98470D
:101A400010BD00BFA0C004408C2C0020094B10B575
:101A50001C68A2071C6004D5074B9A6E0AB19B6EE6
:101A60009847E30704D5044BDA6F0AB1DB6F984758
:101A700010BD00BFA0D004408C2C0020044B0549B1
:101A800000221A600A60044A106010221A6070472F
:101A900014D0034004D0034000D0034018B11028F4
:101AA00028BF102000E00120014B1870704700BFD4
:101AB0000C89FF1F10B500234FF4377242FA03F46C
:101AC000A14202D80133072BF8D1164A42FA03F299
:101AD00002EB5102B2FBF1F101394FF6FF72914274
:101AE00028BF1146C21E012A06D80F4A0F4C0020FB
:101AF000106020600E480FE0421F012A06D9092815
:101B000004D00A2802D01438032809D8094A0A4CFC
:101B1000002010602060094843F008030160136052
:101B200010BD00BF006CDC02009003400490034035
:101B30000890034000800340048003400880034075
:101B4000212810B518D80D4A52F8303093F8804249
:101B50003CB1012211B183F8802010BD83F800212F
:101B600010BD02EBC00043681A6811B142F00302D5
:101B700001E022F002021A6010BD00BF70530000A5
:101B8000212816D80B4A02EBC00301295B6852F8E2
:101B9000302004D182F880124FF4A27208E00020B5
:101BA00082F8800211B94FF4807201E040F2031212
:101BB0001A60704770530000282838B50A4604465A
:101BC0004E4B0FD11B780B2B03D8C3F10C039A405B
:101BD00003E00C2B01D00C3B1A411046BDE8384005
:101BE000FFF738BD19780125002A05FA01F301DC59
:101BF000002102E09A4205D32946FFF7A1FF2046C3
:101C0000294676E0C31E012B01D83D4B06E019287A
:101C100001D0202801D13B4B00E03B4B1B68013336
:101C2000534323FA01F3E11E1D2959D8DFE801F0DF
:101C30000F151B215858272D585858585858585880
:101C40005833393F4558515858585858584B2F4ACF
:101C500013604FF451722E4B40E02E4A13604FF444
:101C600051722D4B3AE02D4A136040F244422C4B06
:101C700034E02C4A136040F244422B4B2EE02B4AB6
:101C8000136040F244422A4B28E02A4A136040F293
:101C90004442294B22E0294A136040F24442284B37
:101CA0001CE0284A136040F24442274B16E0274AC2
:101CB000136040F24442264B10E0264A136040F283
:101CC0004442254B0AE0254A13604FF45172244BDD
:101CD00004E0244A1360244B4FF451721A6038BD5B
:101CE0007F2A2046D4BF00210121FFF729FF20468B
:101CF0000121BDE83840FFF743BF00BF0C89FF1F3B
:101D00000890034008800B40088003401090034077
:101D100030900440189003403490044048800340C1
:101D20001CC004403080034010C0044020800340A9
:101D30000CB004402880034010B0044038800340B9
:101D400014C004404080034018C004401080034089
:101D500004B004401880034008B0044010800B40D9
:101D600048A0044018800B404CA0044072B60B4BB6
:101D70000B491A680B4B1B68096862B6490102D50A
:101D8000322A88BF0133C2F5BB32FF326021B2FB79
:101D9000F1F24FF47A7000FB0320704718E000E086
:101DA00004ED00E0142D002070B50446FFF7DEFFBF
:101DB00005466CB140F2E736FFF7D8FF401BB04252
:101DC00003D9013C04D005F57A7501F0A9FBF3E7CE
:101DD00070BDFFFF10B5FFF7D7FC164B164A174C26
:101DE00000204BF6FF711860596028231360936040
:101DF00013619361136293621363936309222260F8
:101E00000F4C20606160A360236144F8042C0D4CEA
:101E100020600D4801600D490B608B600C4B1A600F
:101E2000FFF7ECFA0420FFF7BFFFBDE8104001F018
:101E3000BBB900BF048003400C8003400080034016
:101E40000490034004800B4008800B400C800B4042
:101E500000800B401B4B1A6842F480621A601A4AD9
:101E600000231370194A1370194A1370194A13701A
:101E7000194A1370194B40F213321A604FF4517221
:101E80005A60174BC0F344321A70C0F347125A70AD
:101E900000F01F00134A987202210423137051743A
:101EA000D374114B88221A703C2203F80D2C0F4B6F
:101EB00040226FF44A711A705B184FF400521A6096
:101EC000704700BF348004409A2D0020192D002057
:101ED000A02D00209B2D0020182D002040A00440A4
:101EE00000A0064002A0064010A006402DE400E03D
:101EF000134A137800F0030103F0EC030B4341078E
:101F000048BF43F01003137000F00F03042B04D1FB
:101F10000C4B1A7842F040021A700B4A1378C10633
:101F200003F0EF0348BF43F010031370054A137822
:101F3000800603F0EF0348BF43F0100313707047AF
:101F400002A0064006A0064005A006400E4B1B68F6
:101F5000580510B503D410BD01F0E2FA00E00B4CB7
:101F60002378002BF8D10A4A4FF400511160094A36
:101F70000949137040F203120A604A60074A13705D
:101F8000074A137010BD00BF34800440182D002094
:101F900084E100E003A0064040A004409A2D002008
:101FA000192D002038B5094B04461D78002DFCD1B1
:101FB00020460121FFF7E4FD20462946FFF7C0FD3A
:101FC000034B53F83420034B1A6038BD182D002002
:101FD000705300009C2D00201D4B1B685A052DE9F5
:101FE000F041064632D51B4B1B680BB101221A701B
:101FF000194B1A4D1C781A4FDFF86C8001343F2CB6
:1020000088BF002415E0FFF77BFB40280DDC3B7800
:102010001B060ED52B78134A01333F2B88BF0023B4
:1020200018F8031011702B7003E0FF2801DD01F098
:1020300077FA2B78A342E6D00B4B1E550B4B0122AF
:102040001A70054B1C700A4BBC221A70BDE8F08157
:10205000348004409C2D0020A02D00209B2D0020CA
:1020600004A0064007A006401A2D0020182D0020CD
:1020700003A006402DE9F84F254B1B68064658057E
:10208000884643D5234B1B680BB101221A70224DA1
:10209000B346A94633E0214B1C782F7801343F2CFE
:1020A00088BF0024A74209D01BF8012B1C4B1A55EE
:1020B0001C4B01221A70194B1C7020E01A4BDFF8E0
:1020C00070A0BC221A70FFF71BFB40280FDC9AF8A7
:1020D000003019060FD52B78114A01333F2B88BFEA
:1020E0000023D15C114A117089F8003003E0FF2809
:1020F00001DD01F015FA2B78BB42E4D0D4E706EB02
:1021000008039B45C7D3084BBC221A70BDE8F88F63
:10211000348004409C2D00209B2D0020A02D002009
:102120001A2D0020182D002003A0064007A006400D
:1021300004A0064010B5044C01E001F0F1F9237849
:10214000002BFAD110BD00BF182D0020044B1878C9
:10215000044B1B78984238BF4030C01A704700BF0C
:102160009A2D0020192D0020084B094A1978137860
:10217000994207D001333F2B88BF00230549C85C33
:10218000137070474FF0FF30704700BF9A2D00204A
:10219000192D00205A2D0020074B1A78074B1B7869
:1021A0009A4206D001333F2B88BF0023044AD05CFB
:1021B00070474FF0FF3070479A2D0020192D0020F6
:1021C0005A2D00200A4B1B685B050FD5094B1A7866
:1021D00002F0CB021A70084A402111701A7842F0BE
:1021E00034021A70054B1A78054B1A70704700BFFD
:1021F0003480044003A0064011A00640192D0020A1
:102200009A2D0020F0B5304B1B7813F0300F20D002
:1022100072B62E4B197831B90F3B40221B782C4BEC
:102220001A7062B615E062B62A4B2B4C1A782B4B0B
:102230002B4D1878531C3F2B88BF002326788342F0
:102240001CBFEE541A46013911F0FF01F2D1214BA7
:102250001A70244B1B7819465BB2002B1FDA1A4AFE
:10226000137818061BD5204B204E1F78204B1A4D93
:102270001B78204CBB4209D001333F2B88BF002381
:102280001078F05C287020780728F3D9184A13706A
:102290000D4B1B781A0602D5124B7C221A7001F0E6
:1022A0004003DBB27BB1084B1B7803F04003DBB289
:1022B0004BB1114B00221A70104B1B6803B11A70FE
:1022C000084B3C221A70F0BD04A0064016A0064040
:1022D00011A006409A2D002007A00640192D0020CD
:1022E0005A2D002003A00640A02D00201A2D00200A
:1022F0009B2D002014A00640182D00209C2D0020AE
:10230000164B1A6842F400621A60154A00231370D3
:10231000144A1370144A1370144A1370144A137039
:10232000144A40F2133111604FF451715160124A56
:10233000C0F344311170C0F3471100F01F00517019
:102340009072937013740D4B2C221A700C4B402218
:102350001A700C4B4FF400421A60704734800440EE
:102360000B2E0020A22D00200D2E00200C2E002070
:10237000A12D00200CB0044000B0064003B0064080
:102380002FE400E004E100E0134A137800F00301B9
:1023900003F0EC030B43410748BF43F010031370F5
:1023A00000F00F03042B04D10C4B1A7842F04002CA
:1023B0001A700B4A1378C10603F0EF0348BF43F0CD
:1023C00010031370054A1378810603F0EF0348BF2A
:1023D00043F010031370704702B0064006B0064089
:1023E00005B006400E4B1B68180510B503D410BD90
:1023F00001F096F800E00B4C2378002BF8D10A4A44
:102400004FF400411160094A0949137040F2031268
:102410000A604A60074A1370074A137010BD00BF74
:1024200034800440A12D002084E100E003B0064088
:102430000CB004400B2E0020A22D00201B4B1B686B
:102440001A052DE9F04106462DD5194B194D1C787A
:10245000194FDFF86C800134272C88BF002415E069
:10246000FFF74EF940280DDC3B781B060ED52B7884
:10247000124A0133272B88BF002318F8031011706C
:102480002B7003E0FF2801DD01F04AF82B78A3420E
:10249000E6D00B4B1E550B4B01221A70044B1C70DF
:1024A000094BAC221A70BDE8F08100BF34800440B3
:1024B0000D2E00200C2E002004B0064007B0064070
:1024C000A32D0020A12D002003B0064038B54518EB
:1024D000044603E014F8010BFFF7B0FFAC42F9D15A
:1024E00038BDFFFF10B5044C01E001F019F8237866
:1024F000002BFAD110BD00BFA12D0020044B18788D
:10250000044B1B78984238BF4030C01A704700BF58
:102510000B2E0020A22D0020084B094A19781378B1
:10252000994207D001333F2B88BF00230549C85C7F
:10253000137070474FF0FF30704700BF0B2E002024
:10254000A22D0020CB2D0020074B1A78074B1B78BB
:102550009A4206D001333F2B88BF0023044AD05C47
:1025600070474FF0FF3070470B2E0020A22D002047
:10257000CB2D0020024B1A78024B1A70704700BF17
:10258000A22D00200B2E002010B5214B1B7803F04C
:102590002003DBB273B11F4B1F4A18781F49137811
:1025A000097801333F2B88BF00238B4202D01C499E
:1025B000C85413701B490B7818465BB2002B15DA10
:1025C000134B1B781B0611D5174B184A1C78137830
:1025D0009C4202D16C230B7008E00133272B88BF8B
:1025E00000231349CC5C0B490C70137000F04003BE
:1025F000DBB25BB1064B1B7803F04003DBB22BB1BF
:102600000C4B00221A70074B2C221A7010BD00BF11
:1026100004B0064007B006400B2E0020A22D00207B
:10262000CB2D002003B006400D2E00200C2E0020E4
:10263000A32D0020A12D0020174B1A6842F48052D0
:102640001A60164A00231370154A1370154A137046
:10265000154A1370154A1370154A40F21331116070
:102660004FF451715160134AC0F344311170C0F3FB
:10267000471100F01F0051709072937013740E4B4D
:102680002C221A700D4B40226FF44B711A705B189C
:102690004FF400321A60704734800440782E0020D6
:1026A0000F2E00207A2E0020792E00200E2E0020E2
:1026B00008C0044000C0064003C0064031E400E00A
:1026C000134A137800F0030103F0EC030B434107B6
:1026D00048BF43F01003137000F00F03042B04D124
:1026E0000C4B1A7842F040021A700B4A1378C1065C
:1026F00003F0EF0348BF43F010031370054A13784B
:10270000800603F0EF0348BF43F0100313707047D7
:1027100002C0064006C0064005C006400E4B1B68BE
:10272000D80410B503D410BD00F0FAFE00E00B4C45
:102730002378002BF8D10A4A4FF400311160094A7E
:102740000949137040F203120A604A60074A137085
:10275000074A137010BD00BF348004400E2E0020C5
:1027600084E100E003C0064008C00440782E002049
:102770000F2E00201B4B1B68DA042DE9F0410646A2
:102780002DD5194B194D1C78194FDFF86C80013489
:10279000272C88BF002415E0FEF7B2FF40280DDC8F
:1027A0003B781B060ED52B78124A0133272B88BFA6
:1027B000002318F8031011702B7003E0FF2801DDCF
:1027C00000F0AEFE2B78A342E6D00B4B1E550B4B10
:1027D00001221A70044B1C70094BAC221A70BDE820
:1027E000F08100BF348004407A2E0020792E002032
:1027F00004C0064007C00640102E00200E2E002008
:1028000003C0064038B54518044603E014F8010B30
:10281000FFF7B0FFAC42F9D138BDFFFF10B5044C53
:1028200001E000F07DFE2378002BFAD110BD00BF3F
:102830000E2E0020044B1878044B1B78984238BFAA
:102840004030C01A704700BF782E00200F2E0020A5
:10285000084B094A19781378994207D001333F2B66
:1028600088BF00230549C85C137070474FF0FF30E4
:10287000704700BF782E00200F2E0020382E002039
:10288000074B1A78074B1B789A4206D001333F2B2F
:1028900088BF0023044AD05C70474FF0FF30704778
:1028A000782E00200F2E0020382E0020024B1A78A0
:1028B000024B1A70704700BF0F2E0020782E0020A8
:1028C00010B5214B1B7803F02003DBB273B11F4B13
:1028D0001F4A18781F491378097801333F2B88BFA6
:1028E00000238B4202D01C49C85413701B490B783B
:1028F00018465BB2002B15DA134B1B781B0611D55B
:10290000174B184A1C7813789C4202D16C230B7029
:1029100008E00133272B88BF00231349CC5C0B4907
:102920000C70137000F04003DBB25BB1064B1B78F8
:1029300003F04003DBB22BB10C4B00221A70074BA3
:102940002C221A7010BD00BF04C0064007C006400C
:10295000782E00200F2E0020382E002003C00640C5
:102960007A2E0020792E0020102E00200E2E00201E
:102970001FB572B6154B70221A70154A412111709D
:102980000F2102F8011C80221A701A781206FCD559
:10299000104B186862B6104B984201D80A2358436E
:1029A00001A90A22FEF7D2FE0C48002301AA9A5C74
:1029B0002AB100EB430101330A2B4A80F6D10133DF
:1029C000064A5B00137005B000BD00BF0000024066
:1029D00007000240080002407F969800E889FF1F28
:1029E000F0B50C4B0C4C1A7842F0020504EBC5060E
:1029F00082F00102706009481A700678002E0CBF40
:102A00008827C82747EA014186F0010644F83510B7
:102A10000670F0BDF82E00200080FF1F802F0020E0
:102A2000431E052B10B510D872B6094A52F8230080
:102A300048B1416842F82310064A018832F8134031
:102A4000611A22F8131062B610BD002010BD00BF3D
:102A5000E02E002044300020013805280BD872B643
:102A6000064B53F82030002001E05B680130002B5A
:102A7000FBD162B670470020704700BF3C2F00209A
:102A800070B572B6184E194C01239A1912F8012C20
:102A900002F00802D2B2E2B19900144A54F831505F
:102AA0002DB902EB431308305860114B09E041F097
:102AB000010154F8315065B902EBC1030830586088
:102AC0000C4B42F831300C4B1A78013A1A7062B64E
:102AD00070BD0133072BD8D162B6074B00221A70A4
:102AE000BDE8704000F0CCBB805400000080FF1FA8
:102AF00088004000C8004000762F0020431E052BB0
:102B000030B532D84001194A40F01000101872B6A2
:102B1000174CE25C032A09D8DFE802F01602180518
:102B20000830022213E00830042210E01148124A53
:102B300050F8234014B940F8231002E052F8230063
:102B4000416042F823100FE0032200E00522E25426
:102B500010F0080F01F108030A8843600CBF8823B6
:102B6000C82343EA0243036062B630BD0080FF1F02
:102B7000982E00203C2F0020542F00202DE9F74FE5
:102B8000A34EA44C357805F00403DBB2ABB1A24BE5
:102B90001B7883B1A14A137823B1013BDBB21370D8
:102BA00003B900BE9E4A13782BB1013BDBB2137010
:102BB0000BB900F097FC0423337005F00802D2B281
:102BC000002A00F07B82974B1B781D094FEA93097E
:102BD00040F0F98154F8392004EBC903C2F38302B1
:102BE000013A5B680C2A00F2EB81DFE812F0A001E9
:102BF000A001E901E901E901E901E901E901C001F7
:102C0000E901E901E9010D001A6887495B68874D10
:102C10004B60874B0A6044F83930864B00201860BF
:102C200001232B7092B240F28165AA422061A0611B
:102C300017D8B2F5D06F80F02881B2F5817F00F00F
:102C4000D58006D8802A00F0BB80822A40F03581EA
:102C5000BAE040F202339A4200F00881B2F5A06F68
:102C600010E0B2F5106F10D004D8B2F5086F40F044
:102C70002481A0E040F621139A4200F0558103F52B
:102C800080739A4240F019811BE18A78624B614D52
:102C90001A702B6A180603D5686A083800F0F0FA33
:102CA000654908358D42F4D1DFF8B491DFF8B4B14D
:102CB0000025A846CA4655F8090005E04368009378
:102CC00000F0DEFA009B18460028F7D15B4B4AF86B
:102CD000050045F80B00E85807E0426800930192B0
:102CE00000F0CEFA019A009B10460028F5D1585109
:102CF000534BE850534B23F81800534B18F803205C
:102D0000023A032A08D8DFE802F002040204002293
:102D100000E0012203F8082008F101080435B8F1A9
:102D2000060FC8D1494BDFF8409100221A700125E7
:102D30009846474B05EB0902EB1812F8012C9B0053
:102D40001A7002F00802D2B23AB300F07BFAAB007C
:102D500038B104EB4512083050603E4A44F8332045
:102D600006E044F8330098F80030013388F800306A
:102D700000F068FAAB0043F0010338B104EBC30282
:102D8000083050602A4A44F8332006E044F8330003
:102D900098F80030013388F80030AA0042F00201B0
:102DA000013542F003020023072D44F8313044F886
:102DB0003230BED129E0184A274D12782A7083E0BC
:102DC000254D287068707EE08A88062A00D974E054
:102DD0009100224A204D8A1828706870127802F0FB
:102DE0000202D2B2002A6ED02B706CE08A8802F008
:102DF0007F03062B61DC4B8803B15EE09100174A2C
:102E00008A18117821F0020111701D465CE000BFA4
:102E1000802007400080FF1F7F2F0020F92E002018
:102E2000902F0020902007406C2F0020802F002042
:102E3000C80040007C2E0020C080FF1F3C2F0020D7
:102E4000542F002044300020982E0020762F0020A0
:102E500030C8011088004000772F0020C0200740B4
:102E6000E02E0020802E0020805400008A8802F08E
:102E70007F03062B21DC4B8803B11EE09100A04AA2
:102E80008A18117841F00201BEE74A889D4B898873
:102E900053F8085CA3F10C007DB133F80CCC9445D9
:102EA00009D133F80ACC8C4505D1120A032A0CBF8C
:102EB0002B78038908E00C33EAE7914B0F221A7054
:102EC00032E00023A1E702238F4AB2F806904B4577
:102ED00038BF9946B9F1400F34BFC8464FF040089B
:102EE00028464146FFF77CFDB9EB0809454403D16C
:102EF000B8F1400F07D017E0B9F1400F34BFC84612
:102F00004FF0400800E0C84628464146FFF768FDFC
:102F1000B9EB0809454402D1B8F1400F04D17B4B0D
:102F20007B4A1D60A2F8009001227A4B47E0764A66
:102F300079481168814216D15168784A914212D17C
:102F40001A78A92A0FD15A78452A0CD19A78C22A20
:102F500009D1DB786B2B06D1714B0020052201468D
:102F60001A70FFF73DFD6F4B44F8393028E0674B8E
:102F7000D3F80080B8F1000F18D0DFF89491B9F8B9
:102F800000A0BAF1400F34BF5546402540462946BF
:102F9000FFF726FDC5EB0A039BB2A9F800300BB979
:102FA000402D01D108EB0503584A1360564B1A888F
:102FB000B2F5A06F04D100225A709A785A4B1A7059
:102FC0000122544B6DE004EBC90803F00803D8F864
:102FD0000420013DD9B2A2F10800EDB2002937D09A
:102FE00000F04EF95148524B50F82510F1B14A68A3
:102FF00040F8252001F10802C8F804205A5D032A90
:103000000BD8DFE802F002040608032204E00222E3
:1030100002E0052200E004225A5518F0080F0A8841
:103020000CBF8823C82343EA024342E05A5D032AC7
:1030300007D8DFE802F040400204002206E0012247
:1030400004E018F0080F0CBF022203225A5532E0A8
:1030500054F839301B0C22F8083C23B322F8061C24
:1030600042F8041C334A344952F8257017B942F823
:10307000250002E051F825205060304A41F8250033
:1030800032F815105B1822F8153000F0DBF818B193
:103090000830C8F8040006E0294B44F839001A78D3
:1030A00001321A7007E01F4B264A18F0080F08BFBC
:1030B000134644F839300823337063E5E90751D5E6
:1030C00014492048204C02230B70204B1A70204BCF
:1030D000186098601F481A61D8609A615C60084B5C
:1030E0000D2018701C48FF23037000F8083C027480
:1030F0001A4A13701A4B9F221A7001230B704AE070
:10310000C0200740945400006C2F00207C2E00202B
:10311000742F0020942007402109000301000400BF
:10312000F92E0020C8004000982007403C2F0020C6
:10313000982E0020E02E0020802E00204430002019
:10314000762F002088004000A02E0020F82E0020BE
:103150000080FF1FFC2E0020882007408C200740A5
:10316000842007402B0605D50C4B0D221A708022B7
:1031700003F8402C05F00203DBB22BB1084B1A78A0
:103180001A70022203F8082C05F01005EDB215B1F3
:10319000044B10221A70BDE8FE8F00BFC02007400C
:1031A000882007408020074008B5FFF7E1FB002397
:1031B0001E491A465A50C8180833C82B4260F9D124
:1031C0001B4B1A6842F480221A601A4B80221A7034
:1031D0001978184A0906FBD4144B1749C3F3072082
:1031E0000870C3F307401B0E08750B76FF2301F828
:1031F0001C3C01F8143C01F88C3C137843F040036C
:1032000013700021012302F8783C02F80C1C02F82C
:10321000883C0A4B70226FF4507C1A7063444FF460
:1032200000721A60064B10221A7008BD0080FF1F42
:10323000348004400C2107409C20074049E400E012
:103240000821074072B60C4A1168B1FA81F30B2BC2
:1032500002D962B6002070474FF0004020FA03F018
:1032600021EA0001116062B6044948225343C8189C
:103270000022CA5042607047008AFF1FE080FF1F93
:103280000C4B4822C31AB3FBF2F30B2B11D80A4A9A
:10329000127822B1094A12780AB1FFF7F1BB72B66F
:1032A000074A4FF0004121FA03F3116819431160F6
:1032B00062B67047E080FF1F762F00207F2F00202E
:1032C000008AFF1FF8B5124D124E2F463378DBB13E
:1032D0002B681BB90220FFF7A3FB2860386898B160
:1032E0004388C218147A5CB102880133934205D333
:1032F000FFF7C6FF064B00221A6007E0438005E097
:10330000FFF7BEFF2C60E1E74FF0FF342046F8BD29
:103310008C2F00207F2F0020F8B50C4D0C4E2F462F
:1033200033787BB12B681BB90220FFF779FB28604B
:10333000386838B14388C3181C7A2CB9FFF7A0FF4E
:103340002C60EDE74FF0FF342046F8BD8C2F0020B5
:103350007F2F002038B5124C236833B1104B18680A
:10336000438802880024C51810E00E4B1B781BB15F
:103370000220FFF755FB20602468002CEED10DE001
:103380002919097A09B94CB904E00134E1189142CC
:10339000F6DBF8E7FFF774FF014B1C60204638BDF1
:1033A0008C2F00207F2F00202DE9F843314B324D28
:1033B000DFF8D09001220C461A70064653E02B68C5
:1033C0005BBB2C4F44F2D95899F8003013B9294A05
:1033D000137018E00120FFF73FFB052804D9B8F16E
:1033E0000108264A08D109E001233B70FFF72AFFB4
:1033F00028600028F3D010E0137843B10123137044
:103400001C4B00221A704FF0FF30BDE8F8833B7070
:1034100000F086F801233B70D6E72968174A4888F0
:1034200000231370C0F14002944238BF224600F1DD
:1034300008078018CF194880A41A02E0F05CF854FD
:1034400001339342FAD1F6184B883F2B0C4B02D82C
:1034500005221A7007E040220A80002701201F7011
:10346000FFF74CFB2F60002CA9D1024B20461C70AB
:10347000BDE8F883812F0020842F0020882F0020B2
:10348000902F00207F2F002007B502AB012103F809
:10349000010D1846FFF788FF0EBDFFFF38B50E4B34
:1034A0001B78C3B10D4B1968A9B14A889AB10C4871
:1034B000002303708C181D4602E0E01801330572EA
:1034C00098183F28F9DD40230B800120FFF716FBF9
:1034D000024B00221A6038BD7F2F0020842F00206D
:1034E000902F002038B50C4B1B789BB90B4A116804
:1034F0004A881D468C1802E0E018013305729818BE
:103500003F28F9DD40230B800120FFF7F7FA034B3A
:1035100000221A6038BD00BF812F0020842F0020B8
:103520007047FFFFF8B5164B164D1A6842F08072CF
:103530001A60154B1A6842F001021A60134B2E688C
:103540001C680FE0237A63B121682F680B6820465E
:1035500098472A68E388D21B12099A42A28088BF42
:10356000E2806469002CEDD1064B094A1B689B1B65
:103570001B091380074A11888B4288BF1380F8BD4E
:10358000FCED00E0041000E0001000E0942F0020AB
:103590009A2F0020982F002008B50368C9B21B6835
:1035A000984708BD08B50368C9B21B68984708BDAD
:1035B00008B50368C9B21B68984708BD08B5036819
:1035C000C9B21B68984708BD084608B5FEF704FD58
:1035D000012008BD084608B5FEF7FEFC012008BD25
:1035E00038B508460D46FEF7A9F804462146284698
:1035F000FEF740FD204638BD10B50846144611467A
:10360000FEF738FD204610BDFEF7DCBDFEF792BD8B
:10361000FEF7AABDFEF7C0BDFEF798BD0846FEF74F
:10362000C1BCFEF793BC480800F1376000F5D83004
:10363000B0FBF1F0FEF70EBC480800F1376010B5A2
:1036400000F5D830B0FBF1F01446FEF703FC20463D
:10365000BDE81040FEF74CBC044B00221A711A73EF
:10366000034A4FF47A7199601A6070479C2F0020CA
:103670001855000008B50368C9B21B68984708BD13
:1036800008B50368C9B21B68984708BD08B5036848
:10369000C9B21B68984708BD08B50368C9B21B6862
:1036A000984708BD084608B5FEF7C8FE012008BDCA
:1036B000084608B5FEF7C2FE012008BD38B5084629
:1036C0000D46FEF73BF8044621462846FEF7FEFE6F
:1036D000204638BD10B5084614461146FEF7F6FEE2
:1036E000204610BDFEF746BFFEF7FCBEFEF714BF36
:1036F000FEF72ABFFEF702BFFEF774BE480800F1CE
:10370000376000F5D830B0FBF1F0FEF7F9BD48089E
:1037100000F1376010B500F5D830B0FBF1F0144679
:10372000FEF7EEFD2046BDE81040FEF72DBEFFFF80
:10373000044B00221A711A73034A4FF47A7199608C
:103740001A607047AC2F00206855000008B5036868
:10375000C9B21B68984708BD08B50368C9B21B68A1
:10376000984708BD08B50368C9B21B68984708BDEB
:1037700008B50368C9B21B68984708BD084608B574
:10378000FEF7F8FF012008BD084608B5FEF7F2FF76
:10379000012008BD38B508460D46FDF7CFFF0446A9
:1037A00021462846FFF72EF8204638BD10B50846BA
:1037B00014461146FFF726F8204610BDFFF776B8ED
:1037C000FFF72CB8FFF744B8FFF75AB8FFF732B845
:1037D000FEF7A4BF480800F1B76000F55840B0FB01
:1037E000F1F0FEF729BF480800F1B76010B500F509
:1037F0005840B0FBF1F01446FEF71EFF2046BDE82E
:103800001040FEF75DBFFFFF044B00221A711A73D0
:10381000034A4FF47A7199601A607047BC2F0020F8
:10382000B855000008B5034B01221A60024B1B6813
:10383000984708BD0C710340D42F002008B5034BF6
:1038400001221A60024B5B68984708BD1C71034057
:10385000D42F002008B5034B01221A60024B9B684D
:10386000984708BD2C710340D42F002008B5034BA6
:1038700001221A60024BDB68984708BD3C71034087
:10388000D42F0020054B1A6842F400021A60044B42
:1038900000221A60034B01221A7070473C800440DA
:1038A00000700340D02F0020054B01221A60054B09
:1038B0001A6822F400021A60034B00221A70704743
:1038C000007003403C800440D02F0020F0B54478C5
:1038D000104D114F23015A194260104A9E188660FC
:1038E00004F144060673066947F8246000249C50DE
:1038F000595103219950037B5A11920002F1604201
:1039000002F5614203F01F03012101FA03F3136082
:10391000F0BD00BF00710340D42F002008710340A8
:103920000C4B1B7870B505460E460BB9FFF7AAFF86
:10393000094B0024E15C41B928466C703146FFF721
:10394000C5FF054B0120185570BD0134042CF1D181
:10395000002070BDD02F0020CC2F0020037B01223F
:10396000591103F01F0302FA03F3084A42F8213009
:103970008268002313604178054A5354D15C21B911
:103980000133042BFAD1FFF78FBF704780E100E0CD
:10399000CC2F0020037810B504460BB1FFF7DEFFF3
:1039A0000023237010BD037870B504460D461646FB
:1039B0001BB1FFF7D3FF002323702561204631465A
:1039C000FFF7AEFF10B10123237000E020702078D4
:1039D00070BD2DE9F041002407460D4626463B19EF
:1039E0000A2219792846002300F038F82B6880460F
:1039F0002E211B682846984701344044032C064476
:103A0000EDD12846F9790A22002300F027F8801921
:103A1000BDE8F081044B054A1A6000221A715A7100
:103A20009A71DA71704700BFE42F00200856000039
:103A300008B5FCF753FFFCF77FFDFFF771FDFAE7D0
:103A400007B5054B1B88ADF80430036801A95B6816
:103A5000022298470EBD00BF10560000F0B5054683
:103A60008BB022B90368C9B21B6898472CE0012AC1
:103A700008BF0A2221B930228DF82520212413E025
:103A80002124B1FBF2F002FB1011C9B2092901D8BF
:103A9000303100E037310AAF3E1906F8241C0146E8
:103AA00010B1013CE4B2ECE733B1013C0AAAE4B244
:103AB00013192D2203F8242C2B6801AF5B682846CC
:103AC0003919C4F1220298470BB0F0BDFFFFFFFF88
:103AD0002DE9F347074691469A46104619460022BB
:103AE00000239DF8284000F003FD20B10AF1004AB0
:103AF0004FF0010800E0804600260022304B0AE02B
:103B0000104619462CA3D3E9002300F07FFA0136B2
:103B100002460B46F6B2A642F2D14846514600F0A4
:103B2000C3F80D46044600F033FD8146434638464F
:103B300049460A22FFF792FF8046002E37D04846BA
:103B400000F0EEF9072E28BF07260B46024629464D
:103B5000204600F0A7F801362E238DF80030F6B28B
:103B60004FF001091BE00022164B00F04FFA0D4602
:103B7000044600F00DFD02AA02EB0903C0B200F1F9
:103B8000300203F8082C00F0DBF909F101090246C4
:103B90000B46204629465FFA89F900F083F8B145C3
:103BA000E1D13B6838465B6869464A4698474046DB
:103BB000BDE8FC87AFF300809A9999999999B93F2C
:103BC0000000E03F0000244073B50C4B1A680092DF
:103BD000009D04461E4623682046DB68984700285F
:103BE0000ADAFFF79DFC3368A2680193019B5B1B17
:103BF0009342F0D34FF0FF307CBD00BF142D002066
:103C00002DE9B847074689469046B3B103F1FF3A1C
:103C100014460BE03846FFF7D7FF48450AD0002886
:103C200002DA01233B7305E004F8010BC8EB04053D
:103C30005545EFD30023237000E01D462846BDE81C
:103C4000B887FFFF03480449044A0023037000F0CB
:103C5000BFBC00BFEC2F0020ED0400004084FF1F1C
:103C600008461146FFF7A0BB0846FFF70DBCFFF75B
:103C700015BCFFF751BBFFF725BBFFF76BBBFFFF81
:103C8000044B00221A711A73034A4FF47A71996037
:103C90001A607047003000202056000081F000417B
:103CA00002E000BF83F0004330B54FEA41044FEA21
:103CB000430594EA050F08BF90EA020F1FBF54EABC
:103CC000000C55EA020C7FEA645C7FEA655C00F058
:103CD000E2804FEA5454D4EB5555B8BF6D420CDD29
:103CE0002C4480EA020281EA030382EA000083EAAC
:103CF000010180EA020281EA0303362D88BF30BD4C
:103D000011F0004F4FEA01314FF4801C4CEA1131A1
:103D100002D0404261EB410113F0004F4FEA033300
:103D20004CEA133302D0524263EB430394EA050F8B
:103D300000F0A780A4F10104D5F1200E0DDB02FAFA
:103D40000EFC22FA05F2801841F1000103FA0EF28E
:103D5000801843FA05F359410EE0A5F120050EF154
:103D6000200E012A03FA0EFC28BF4CF0020C43FA85
:103D700005F3C01851EBE37101F0004507D54FF092
:103D8000000EDCF1000C7EEB00006EEB0101B1F5E2
:103D9000801F1BD3B1F5001F0CD349085FEA300028
:103DA0004FEA3C0C04F101044FEA445212F5800F33
:103DB00080F09A80BCF1004F08BF5FEA500C50F1D0
:103DC000000041EB045141EA050130BD5FEA4C0CB3
:103DD000404141EB010111F4801FA4F10104E9D13C
:103DE00091F0000F04BF01460020B1FA81F308BF33
:103DF0002033A3F10B03B3F120020CDA0C3208DDFF
:103E000002F1140CC2F10C0201FA0CF021FA02F1D9
:103E10000CE002F11402D8BFC2F1200C01FA02F149
:103E200020FA0CFCDCBF41EA0C019040E41AA2BF6E
:103E300001EB0451294330BD6FEA04041F3C1CDA36
:103E40000C340EDC04F11404C4F1200220FA04F056
:103E500001FA02F340EA030021FA04F345EA030100
:103E600030BDC4F10C04C4F1200220FA02F001FAC2
:103E700004F340EA0300294630BD21FA04F0294644
:103E800030BD94F0000F83F4801306BF81F48011DD
:103E90000134013D4EE77FEA645C18BF7FEA655C50
:103EA00029D094EA050F08BF90EA020F05D054EA22
:103EB000000C04BF1946104630BD91EA030F1EBF27
:103EC0000021002030BD5FEA545C05D1400049412B
:103ED00028BF41F0004130BD14F580043CBF01F51E
:103EE000801130BD01F0004545F0FE4141F4700104
:103EF0004FF0000030BD7FEA645C1ABF19461046DF
:103F00007FEA655C1CBF0B46024650EA013406BFDF
:103F100052EA033591EA030F41F4002130BD00BF9E
:103F200090F0000F04BF0021704730B54FF480645B
:103F300004F132044FF000054FF0000150E700BFDC
:103F400090F0000F04BF0021704730B54FF480643B
:103F500004F1320410F0004548BF40424FF0000128
:103F60003EE700BF42004FEAE2014FEA31014FEA6B
:103F700002701FBF12F07F4393F07F4F81F06051BA
:103F8000704792F0000F14BF93F07F4F704730B529
:103F90004FF4607401F0004521F0004120E700BFBC
:103FA00050EA010208BF704730B54FF000050AE043
:103FB00050EA010208BF704730B511F0004502D544
:103FC000404261EB41014FF4806404F132045FEA46
:103FD000915C3FF4DCAE4FF003025FEADC0C18BFEB
:103FE00003325FEADC0C18BF033202EBDC02C2F1E1
:103FF000200300FA03FC20FA02F001FA03FE40EA73
:104000000E0021FA02F11444C1E600BF70B54FF072
:10401000FF0C4CF4E06C1CEA11541DBF1CEA135554
:1040200094EA0C0F95EA0C0F00F0DEF82C4481EABC
:10403000030621EA4C5123EA4C5350EA013518BFDC
:1040400052EA033541F4801143F4801338D0A0FBC9
:1040500002CE4FF00005E1FB02E506F00042E0FB76
:1040600003E54FF00006E1FB03569CF0000F18BF7C
:104070004EF0010EA4F1FF04B6F5007F64F5407424
:1040800004D25FEA4E0E6D4146EB060642EAC621B7
:1040900041EA55514FEAC52040EA5E504FEACE2E24
:1040A000B4F1FD0C88BFBCF5E06F1ED8BEF1004F27
:1040B00008BF5FEA500E50F1000041EB045170BDA3
:1040C00006F0004646EA010140EA020081EA0301E7
:1040D000B4EB5C04C2BFD4EB0C0541EA045170BDE3
:1040E00041F480114FF0000E013C00F3AB8014F15D
:1040F000360FDEBF002001F0004170BDC4F10004A6
:10410000203C35DA0C341BDC04F11404C4F1200526
:1041100000FA05F320FA04F001FA05F240EA020081
:1041200001F0004221F0004110EBD37021FA04F6B7
:1041300042EB06015EEA430E08BF20EAD37070BD71
:10414000C4F10C04C4F1200500FA04F320FA05F0D0
:1041500001FA04F240EA020001F0004110EBD370D2
:1041600041F100015EEA430E08BF20EAD37070BD42
:10417000C4F1200500FA05F24EEA020E20FA04F31B
:1041800001FA05F243EA020321FA04F001F00041CA
:1041900021FA04F220EA020000EBD3705EEA430E3B
:1041A00008BF20EAD37070BD94F0000F0FD101F06A
:1041B0000046400041EB010111F4801F08BF013CA3
:1041C000F7D041EA060195F0000F18BF704703F0E1
:1041D0000046520043EB030313F4801F08BF013D68
:1041E000F7D043EA0603704794EA0C0F0CEA135524
:1041F00018BF95EA0C0F0CD050EA410618BF52EADE
:104200004306D1D181EA030101F000414FF00000E3
:1042100070BD50EA410606BF1046194652EA4306F1
:1042200019D094EA0C0F02D150EA013613D195EA65
:104230000C0F05D152EA03361CBF104619460AD1AD
:1042400081EA030101F0004141F0FE4141F47001B7
:104250004FF0000070BD41F0FE4141F4780170BDA7
:1042600070B54FF0FF0C4CF4E06C1CEA11541DBF0C
:104270001CEA135594EA0C0F95EA0C0F00F0A7F80E
:10428000A4EB050481EA030E52EA03354FEA01313B
:1042900000F088804FEA03334FF0805545EA13134E
:1042A00043EA12634FEA022245EA111545EA106516
:1042B0004FEA00260EF000419D4208BF964244F1AD
:1042C000FD0404F5407402D25B084FEA3202B61ACC
:1042D00065EB03055B084FEA32024FF480104FF4A0
:1042E000002CB6EB020E75EB030E22BFB61A754614
:1042F00040EA0C005B084FEA3202B6EB020E75EBA7
:10430000030E22BFB61A754640EA5C005B084FEA0E
:104310003202B6EB020E75EB030E22BFB61A7546DB
:1043200040EA9C005B084FEA3202B6EB020E75EBE6
:10433000030E22BFB61A754640EADC0055EA060EA7
:1043400018D04FEA051545EA16754FEA06164FEAEA
:10435000C30343EA52734FEAC2025FEA1C1CC0D196
:1043600011F4801F0BD141EA00014FF000004FF023
:10437000004CB6E711F4801F04BF01430020B4F1E4
:10438000FD0C88BFBCF5E06F3FF6AFAEB5EB030C9C
:1043900004BFB6EB020C5FEA500C50F1000041EB99
:1043A000045170BD0EF0004E4EEA113114EB5C0466
:1043B000C2BFD4EB0C0541EA045170BD41F4801139
:1043C0004FF0000E013C90E645EA060E8DE60CEA41
:1043D000135594EA0C0F08BF95EA0C0F3FF43BAF5E
:1043E00094EA0C0F0AD150EA01347FF434AF95EA15
:1043F0000C0F7FF425AF104619462CE795EA0C0FF9
:1044000006D152EA03353FF4FDAE1046194622E7C5
:1044100050EA410618BF52EA43067FF4C5AE50EA9F
:1044200041047FF40DAF52EA43057FF4EBAE12E78F
:104430004FF0FF3C06E000BF4FF0010C02E000BF70
:104440004FF0010C4DF804CD4FEA410C7FEA6C5C53
:104450004FEA430C18BF7FEA6C5C1BD001B050EAF6
:10446000410C0CBF52EA430C91EA030F02BF90EAE1
:10447000020F0020704710F1000F91EA030F58BFA0
:10448000994208BF90422CBFD8176FEAE37040F002
:10449000010070474FEA410C7FEA6C5C02D150EAA0
:1044A000013C07D14FEA430C7FEA6C5CD6D152EA5B
:1044B000033CD3D05DF8040B704700BF8446104620
:1044C00062468C461946634600E000BF01B5FFF71F
:1044D000B7FF002848BF10F1000F01BD4DF808EDEF
:1044E000FFF7F4FF0CBF012000205DF808FB00BFC0
:1044F0004DF808EDFFF7EAFF34BF012000205DF81A
:1045000008FB00BF4DF808EDFFF7E0FF94BF012066
:1045100000205DF808FB00BF4DF808EDFFF7CEFF67
:1045200094BF012000205DF808FB00BF4DF808EDA6
:10453000FFF7C4FF34BF012000205DF808FB00BF77
:104540004FEA410212F5001215D211D56FF47873BB
:10455000B3EB625212D94FEAC12343F0004343EA5E
:10456000505311F0004F23FA02F018BF4042704739
:104570004FF00000704750EA013005D111F00040C3
:1045800008BF6FF0004070474FF00000704700BF59
:104590004A0011D212F5001211D20DD56FF47873C2
:1045A000B3EB62520ED44FEAC12343F0004343EA17
:1045B000505323FA02F070474FF00000704750EA62
:1045C000013002D14FF0FF3070474FF000007047CC
:1045D00003460846194600F009B800BF00210A2228
:1045E00000F0D0BB00220A2300F02ABB30B40546FD
:1045F0000C46134602202946224630BC00F0D0BBB0
:1046000070B545F2B07645F2B075C0F20006C0F262
:104610000005761BB61007D0043D002455F8043F72
:1046200001349847A642F9D145F2D47645F2B075E7
:10463000C0F20006C0F20005761B01F0B3F8B61018
:1046400008D0043D002455F8043F01349847A642A1
:10465000F9D170BD70BD00BF48F604230146C1F614
:10466000FF73186800F008B848F604230146C1F645
:10467000FF73186800F056BC2DE9F04F01F10B04F0
:10468000162C83B0074630D924F00704E30F8C4280
:104690002CBF194643F0010100292FD1384600F004
:1046A000B7FAB4F5FC7F2ED24FEAD40C48F6F826C0
:1046B000C1F6FF7606EBCC02D368934200F011827C
:1046C000596803F10808DA68384621F0030499684C
:1046D0001B195C68CA6044F0010491605C6000F0E2
:1046E00099FA404603B0BDE8F08F002310248C42B5
:1046F0002CBF194643F001010029CFD00C234FF005
:1047000000083B60EDE75FEA542C04BF4FEAD40C8D
:104710004FEA4C0540F08F8048F6F826C1F6FF7648
:1047200006EB8505EB689D4206D10DE0002A80F27C
:104730005581DB689D4207D0596821F003010A1BAF
:104740000F2AF3DD0CF1FF3C0CF1010C48F6F822C6
:104750003369C1F6FF7202F1080E734508BFD2F843
:10476000049022D0586820F00300011B0F2900F3A9
:1047700084810029C2F814E0C2F810E066DAB0F5CE
:10478000007F80F04E81C1084FF0010802EBC100AC
:10479000891008FA01F851688568D86048EA01096B
:1047A000C2F804909D60EB60836001224FEAAC0385
:1047B00002FA03F34B4554D819EA030F0DD1934085
:1047C0002CF0030C19EA030F0CF1040C05D15B006B
:1047D0000CF1040C19EA030FF9D006EBCC09E04602
:1047E0004846C268904207D15BE1002980F283818C
:1047F000D268904200F05581556825F00305291BC9
:104800000F29F2DD90461319D56844F0010058F8DD
:10481000084F41F0010C50603846C3F804C0E56011
:10482000AC6073613361C3F80CE0C3F808E0595021
:1048300000F0F0F955E7BCF1040F00F2DE804FEA1A
:10484000941C0CF1380C4FEA4C0565E71A1803F17B
:1048500008083846536843F00103536000F0DAF962
:104860003FE7B5686B6823F0030A544504D8C4EBEE
:104870000A030F2B00F3A48043F21009D6F80814A2
:10488000C2F2000905EB0A020131D9F800302344D5
:1048900008BF03F1100B06D003F580530F3323F448
:1048A0007F6323F00F0B38465946019200F0B4F9AC
:1048B000019A411C804600F06881824200F23181F9
:1048C000D9F8043042455B44C9F8043000F06681F1
:1048D000D6F8081448F6F820C1F6FF70013117BF6A
:1048E000C2EB0802C0F808849B18C9F8043018F01D
:1048F000070338461FBFC3F10802C3F58053904435
:1049000003F1080208EB0B0308BF4FF480521B05AC
:104910001B0DC3EB020B594600F07EF9431C00F05F
:104920004981C8EB0001594441F00101D9F8043034
:10493000B54243F21002C6F808805B44C2F200029E
:10494000C8F80410C9F8043018D0BAF10F0F40F2BB
:104950000B81AAF10C00696820F007004FF0050CEC
:1049600005EB000E0F2801F0010140EA010169602A
:10497000CEF804C0CEF808C000F2208143F2100245
:10498000D9F82C10C2F20002B5688B42D9F8301069
:1049900088BFD36243F21002C2F200028B4288BF8A
:1049A00013636A6822F003029442C4EB020301D845
:1049B0000F2B05DC38464FF0000800F02BF990E68D
:1049C0002A1943F0010344F0010438466C6005F1F4
:1049D00008085360B26000F01DF982E65918DA68E1
:1049E0009C6838464D6803F1080845F00105E2600F
:1049F00094604D6000F00EF973E6BCF1140F9CBF9B
:104A00000CF15B0C4FEA4C057FF686AEBCF1540FFF
:104A100000F293804FEA143C0CF16E0C4FEA4C0507
:104A20007AE6420A042A75D9142A9CBF02F15B096E
:104A30004FEA490508D9542A00F2C9804FEA1039D3
:104A400009F16E094FEA490506EB850548F6F82895
:104A5000C1F6FF78AA68AA4279D0516821F0030113
:104A6000884202D292689542F7D1D068D6F8049075
:104A7000D8609A60D360836097E61D1941F0010603
:104A8000556144F00104156138465C6003F1080883
:104A9000C5F80CE0C5F808E06E60695000F0BAF89F
:104AA0001FE608F10108083018F0030F7FF499AEF3
:104AB0004A461CF0030FA2F108010CF1FF3C00F084
:104AC0009E8012688A42F4D072685B0093423FF67F
:104AD000C8AE002B3FF4C5AE1A4200F09580C44624
:104AE0007BE603F108025B699A4208BF0CF1020CF5
:104AF0003FF42CAEE4E590465519D368384658F893
:104B0000082F6968D36041F001019A60696000F084
:104B100081F8E6E54FEA901909F138094FEA4905AD
:104B200092E7B54248F6F823C1F6FF733FF4C8AEEA
:104B30009D686A6822F0030236E7BCF5AA7F19D89F
:104B40004FEAD43C0CF1770C4FEA4C05E4E5012523
:104B5000D8F804104FEAA909104605FA09F545EA04
:104B60000109C8F8049083E701234546C8F80430DA
:104B7000002219E740F254539C450BD84FEA944C5D
:104B80000CF17C0C4FEA4C05C6E5B5686A6822F06A
:104B9000030209E7FC254FF07E0CBDE51105090D68
:104BA00000297FF495AEB2680BEB0A0141F00101D8
:104BB0005160E3E601214FF0000BB7E6384605F1FE
:104BC0000801019200F0AEF9019A5368D6E6B2F5F9
:104BD000AA7F06D84FEAD03909F177094FEA49058B
:104BE00032E740F25451FC258A424FF07E099EBFC5
:104BF0004FEA904909F17C094FEA490524E77268B8
:104C000022EA0302726060E75B0008F1040863E7D0
:104C1000704700BF704700BF38B543F25004C2F27E
:104C200000040546084600232360FCF761FD431C91
:104C300000D038BD2368002BFBD02B6038BD00BFEF
:104C40002DE9F04F48F60874C1F6FF7485B0994617
:104C50000B46D4F80080029103901C4614F8015BC7
:104C600008EB05012346497801F00801C9B2002983
:104C7000F3D12D2D7BD02B2D05BF24460B460B46A3
:104C800014F8015B39F0100112D1D9F1010038BFDD
:104C90000020302D04D058B14FF00A09CB4608E06F
:104CA000217801F0DF01582965D008B14FF00809DB
:104CB000CB46002B59460CBF6FF000464FF0004624
:104CC0008DE80C003046002700F024FB30468A4671
:104CD000594600F0F1F9BC469DE80C0016E0303D65
:104CE000A94525DD844594BF0021012151EAD777EC
:104CF00029D15545D4BF00210121844518BF002189
:104D000009BB0BFB0C5C012714F8015B08EB0501E8
:104D1000497801F00406F6B2002EE0D111F003014B
:104D200006D0012914BF572137216D1AA945D9DCB6
:104D3000791C0BD0C3B9604612B197B9029B1360BE
:104D400005B0BDE8F08F4FF0FF37DDE70399002B8A
:104D50000CBF6FF000404FF0004022230B60002A90
:104D6000EED0013C0294E9E7CCF1000CE3E714F843
:104D7000015B012386E74FF010096578CB460234CA
:104D800097E700BF30B448F60424C1F6FF740D461F
:104D9000134601462A46206830BCFFF751BF00BFCA
:104DA0002DE9F04145F23864C0F2000484B00746B2
:104DB0002568AC6C002C42D066681F2E1ADD44F2C8
:104DC0005964C0F2000424B94FF0FF3004B0BDE8CC
:104DD000F0818C20039102920193FFF73DFC03992F
:104DE000029A019B04460028EED0A86C002684E8B5
:104DF0004100AC64DFB1D4F8886026B3D6F80081F6
:104E000065680120022F05F1200C00FA05F046F834
:104E1000252048EA000246F82C3008BFD6F80431B5
:104E2000C6F8002104BF1843C6F8040100E0656815
:104E3000AB1C00200135656044F82310C6E705F17E
:104E40004C04AC64B8E744F25960C0F2000000289A
:104E5000BAD04FF48470039102920193FFF7FCFBE8
:104E60000399029A019B06460028ADD00020C6F89F
:104E70000001C6F804018046C4F88860C0E700BF9E
:104E8000F8B548F6F824C1F6FF740F460546FFF75B
:104E9000BFFEA3685E6826F0030606F6EF73DF1B0D
:104EA0003F0B013F3F03B7F5805F07DB002128463A
:104EB000FFF7B2FEA3689B19984204D02846FFF77B
:104EC000A9FE0020F8BD79422846FFF7A5FE013073
:104ED00010D043F21403A168C2F20003F61B284667
:104EE00046F001061A684E60D71B1F60FFF792FE5E
:104EF0000120F8BD00212846FFF78EFEA368C21AE4
:104F00000F2ADBDD48F6007443F21401C1F6FF748A
:104F1000C2F2000142F001025A602368C01A086020
:104F2000CCE700BF2DE9F0410E46804600295CD059
:104F3000FFF76EFE48F6F82556F8041CC1F6FF751B
:104F4000A6F1080421F00103AF68E2189742506807
:104F500020F0030067D011F00101506035D000212E
:104F60001618766816F0010F06D11B1890680029F4
:104F70004DD0D268C260906043F00102E35062609D
:104F8000F1B9B3F5007F32D35A0A042A6CD89809D4
:104F90003830410005EB810548F6F821C1F6FF7174
:104FA000AA68AA426BD0516821F003018B4202D259
:104FB00092689542F7D1D368E360A260D4609C60A8
:104FC0004046BDE8F041FFF725BE56F8086C05F1F4
:104FD000080CA41B9B19A668664543D0D4F80CC0E6
:104FE000C6F80CC0CCF80860BAE7BDE8F081DB0871
:104FF0000121686805EBC3029B1001FA03F3E2602C
:10500000916818436860A160CC609460D8E7294E2D
:10501000B042AED16C6143F001022C61E060A0604F
:105020006260E350CCE7C018CB0707D456F8083CC1
:10503000E41AC018A268E368D3609A6048F6047264
:1050400040F00103C1F6FF726360AC6013689842E0
:10505000B6D343F210034046C2F200031968FFF7CB
:105060000FFFADE701217BE702F15B004100142A4D
:1050700090D9542A0CD8180B6E3041008AE70126CB
:105080004D688010134606FA00F005434D6093E723
:10509000B2F5AA7F03D8D80B773041007AE740F207
:1050A00054518A4203D8980C7C30410072E7FC21AD
:1050B0007E206FE7008BFF1F4A1E08BF7047C0F0BD
:1050C0002481884240F21681114200F01781B0FA23
:1050D00080F3B1FA81F2A2EB0303C3F11F0304A230
:1050E00002EB03134FF000029F4600BFAFF30080B6
:1050F000B0EBC17F00BF42EB020228BFA0EBC17042
:10510000B0EB817F00BF42EB020228BFA0EB8170B1
:10511000B0EB417F00BF42EB020228BFA0EB417021
:10512000B0EB017F00BF42EB020228BFA0EB017091
:10513000B0EBC16F00BF42EB020228BFA0EBC16021
:10514000B0EB816F00BF42EB020228BFA0EB816091
:10515000B0EB416F00BF42EB020228BFA0EB416001
:10516000B0EB016F00BF42EB020228BFA0EB016071
:10517000B0EBC15F00BF42EB020228BFA0EBC15001
:10518000B0EB815F00BF42EB020228BFA0EB815071
:10519000B0EB415F00BF42EB020228BFA0EB4150E1
:1051A000B0EB015F00BF42EB020228BFA0EB015051
:1051B000B0EBC14F00BF42EB020228BFA0EBC140E1
:1051C000B0EB814F00BF42EB020228BFA0EB814051
:1051D000B0EB414F00BF42EB020228BFA0EB4140C1
:1051E000B0EB014F00BF42EB020228BFA0EB014031
:1051F000B0EBC13F00BF42EB020228BFA0EBC130C1
:10520000B0EB813F00BF42EB020228BFA0EB813030
:10521000B0EB413F00BF42EB020228BFA0EB4130A0
:10522000B0EB013F00BF42EB020228BFA0EB013010
:10523000B0EBC12F00BF42EB020228BFA0EBC120A0
:10524000B0EB812F00BF42EB020228BFA0EB812010
:10525000B0EB412F00BF42EB020228BFA0EB412080
:10526000B0EB012F00BF42EB020228BFA0EB0120F0
:10527000B0EBC11F00BF42EB020228BFA0EBC11080
:10528000B0EB811F00BF42EB020228BFA0EB8110F0
:10529000B0EB411F00BF42EB020228BFA0EB411060
:1052A000B0EB011F00BF42EB020228BFA0EB0110D0
:1052B000B0EBC10F00BF42EB020228BFA0EBC10060
:1052C000B0EB810F00BF42EB020228BFA0EB8100D0
:1052D000B0EB410F00BF42EB020228BFA0EB410040
:1052E000B0EB010F00BF42EB020228BFA0EB0100B0
:1052F000104670470CBF012000207047B1FA81F2C0
:10530000C2F11F0220FA02F0704708B14FF0FF30DF
:1053100000F00EB80029F8D02DE90340FFF7CCFECD
:10532000BDE8064002FB00F3A1EB0301704700BF9C
:10533000704700BF2C007900000000000000000052
:10534000F90A0000210B0000DD0A0000DB0E00005E
:10535000FF0E0000EB0A0000050E08090D0C060701
:105360000F04001303931A9217C585848687C4FF20
:105370004008FE4340A004404408FE4344A00440CB
:105380000018FE4300C004403000FE43309004404B
:105390003400FE43349004401C18FE431CC00440FB
:1053A0001018FE4310C004400818FE4308C0044013
:1053B0000C18FE430CC004400C10FE430CB004401B
:1053C0001010FE4310B004401810FE4318B0044003
:1053D0001C10FE431CB004401410FE4314B00440E3
:1053E0000418FE4304C004400010FE4300B0044013
:1053F0000008FE4300A004400408FE4304A004404B
:105400000C08FE430CA004400808FE4308A004401A
:105410001418FE4314C004401818FE4318C004407A
:105420000410FE4304B004400810FE4308B00440DA
:105430001400FE43149004404C08FE434CA004406A
:105440000420FE4304D004402410FE4324B0044052
:105450002010FE4320B004402810FE4328B0044032
:105460002C10FE432CB004400020FE4300D004402A
:105470004808FE4348A004401000FE43109004403A
:10548000151915190000FFFF000100000D89FF1F0D
:1054900012000000000200003889FF1F49000000D0
:1054A000002201008189FF1F21000000002101006E
:1054B0006A89FF1F0900000000220000A289FF1F67
:1054C0001C000000002100004A89FF1F09000000A5
:1054D00000030000E489FF1F00000000010309042D
:1054E0002089FF1F0000000002030904BE89FF1F7E
:1054F0000000000003030904E889FF1F000000000A
:10550000000000000000000000000000FFFFFFFF9F
:105510000000000000000000D5350000F935000053
:105520001936000011360000153600000D36000057
:105530002736000039360000233600001D360000F3
:105540000936000099350000A5350000B13500008E
:10555000BD350000E1350000C93500000000000045
:105560000000000000000000B1360000D536000049
:10557000F5360000ED360000F1360000E936000097
:10558000FD3600000F370000F93600001D36000020
:10559000E536000075360000813600008D360000CB
:1055A00099360000BD360000A5360000000000005E
:1055B000000000000000000089370000AD37000047
:1055C000CD370000C5370000C9370000C1370000E3
:1055D000D5370000E7370000D13700001D36000046
:1055E000BD3700004D370000593700006537000017
:1055F00071370000953700007D3700000000000083
:105600000000000000000000D3390000000000008E
:105610000D0AFFFFFFFFFFFF000000000000000079
:10562000693C0000613C00007B3C0000773C0000CE
:10563000733C00006F3C0000088AFF1F430000001D
:105640000020202020202020202028282828282052
:10565000202020202020202020202020202020204A
:1056600020881010101010101010101010101010B2
:1056700010040404040404040404041010101010A2
:10568000101041414141414101010101010101016C
:1056900001010101010101010101010110101010BE
:1056A000101042424242424202020202020202023E
:1056B0000202020202020202020202021010101092
:1056C00020000000000000000000000000000000BA
:1056D00000000000000000000000000000000000CA
:1056E00000000000000000000000000000000000BA
:1056F00000000000000000000000000000000000AA
:105700000000000000000000000000000000000099
:105710000000000000000000000000000000000089
:105720000000000000000000000000000000000079
:105730000000000000000000000000000000000069
:105740000000000000000000000000000000000059
:105750000000000000000000000000000000000049
:105760000000000000000000000000000000000039
:105770000000000000000000000000000000000029
:105780000000000000000000000000000000000019
:105790000000000000000000000000000000000009
:1057A00000000000F8B500BFF8BC08BC9E4670477A
:1057B00099040000910A0000D5120000593600003B
:1057C0003137000009380000153A0000453C000060
:0457D000813C000018
:1057D40000000000006006400160064002600640D0
:1057E400036006400460064005600640066006400B
:1057F4000760064008600640096006400A600640EB
:105804000B600640000000000000000000000000E3
:105814000000000000000000000000000000000084
:105824000000000000000000000000000000000074
:105834000000000000000000000000000000000064
:105844000000000000000000000000000000000054
:105854000000000000000000000000000000000044
:105864000000000000000000000000000000000034
:105874000000000000000000000000000000000024
:105884000000000000000000000000000000000014
:105894000000000000000000000000000000000004
:1058A40000000000000000000000000000000000F4
:1058B40000000000000000000000000000000000E4
:1058C40000000000000000000000000000000000D4
:1058D40000000000000000000000000000000000C4
:1058E40000000000000000000000000000000000B4
:1058F40000000000000000000000000000000000A4
:105904000000000000000000000000000000000093
:105914000000000000000000000000000000000083
:105924000000000000000000000000000000000073
:105934000000000000000000000000000000000063
:105944000000000000000000000000000000000053
:105954000000000000000000000000000000000043
:105964000000000000000000000000000000000033
:105974000000000000000000000000000000000023
:105984000000000000000000000000000000000013
:105994000000000000000000000000000000000003
:1059A40000000000000000000000000000000000F3
:1059B40000000000000000000000000000000000E3
:1059C40000000000000000000000000000000000D3
:1059D40000000000000000000000000000000000C3
:1059E40000000000000000000000000000000000B3
:1059F40000000000000000000000000000000000A3
:105A04000000000000000000000000000000000092
:105A14000000000000000000000000000000010081
:105A24000000000000000000000000000000000072
:105A3400000000000070064001700640027006403D
:105A44000370064004700640057006400670064068
:105A54000770064008700640097006400A70064048
:105A64000B70064000000000000000000000000071
:105A74000000000000000000000000000000000022
:105A84000000000000000000000000000000000012
:105A94000000000000000000000000000000000002
:105AA40000000000000000000000000000000000F2
:105AB40000000000000000000000000000000000E2
:105AC40000000000000000000000000000000000D2
:105AD40000000000000000000000000000000000C2
